:020000040000FA
:0400000007EF00F016
:0A0008005F82ABED32F0DCEF32F066
:106450001200040293681200956812003F0E926EBB
:106460001200CF0E946E1200B60ECD6E1200968002
:10647000968296841200BD86BD84CA80CA82CA8470
:106480001200BA86BA84CA80CA82CA841200000E78
:106490009EBA010E4CEF32F01200928092829284EA
:1064A0009286010EC26E0B0EC16EAB0EC06E120054
:1064B0005AEF32F09EAA5FEF32F061EF32F05AEFFE
:1064C00032F063EF32F0AE5066EF32F01200016E40
:1064D0006AEF32F0ACA26FEF32F071EF32F06AEF98
:1064E00032F073EF32F001C0ADFF1200800E0F6E7C
:1064F000250E106E000E116E000E126EB2EC34F00E
:10650000000E016E040E29EC39F01200AFCF80F0BE
:106510000001816B98EC32F076EC32F090EF32F0C3
:10652000E0EC35F090EF32F090EF32F007EF00F052
:106530004DEC32F0C3EC32F02EEC32F02AEC32F0BB
:1065400031EC32F02CEC32F037EC32F028EC32F057
:1065500034EC32F012000600F2A4B1EF32F0B3EFE7
:1065600032F0C1EF32F0010E00016027000E61230E
:1065700062236323F294000ED66E000ED76EC1EF35
:1065800032F05F921100DC0E0F6E050E106E000EE1
:10659000116E000E126E5DEC33F0DC0E0F6E050E08
:1065A000106E000E116E000E126E94EC33F03BEC88
:1065B00032F041EC32F01200520EF66E640EF76EBD
:1065C000000EF86E0900F5CF86F00900F5CF87F0D0
:1065D00000EE60F0140EEE6AE806FDE15F905F9257
:1065E000000EF86E000186EF32F001C005F002C027
:1065F00006F0FFEF32F00350055E0450065A0550D6
:10660000035C06500458D8A008EF33F00AEF33F0CB
:10661000FBEF32F00CEF33F005500FEF33F01200C8
:10662000000E066E000E056E01C007F002C008F0F5
:1066300022EF33F00350075E0450085A054A062A39
:1066400022EF33F00750035C08500458D8A02BEF1A
:1066500033F02DEF33F01AEF33F02FEF33F0055016
:1066600032EF33F01200000E016E360E026E6E0E27
:10667000036E010E046E82C011F083C012F084C05C
:1066800013F085C014F0040ED8901136123613366C
:106690001436E82E44EF33F011C005F012C006F0B6
:1066A00013C007F014C008F046EC35F001C00FF03D
:1066B00002C010F05CEF33F01200000E016E360ED7
:1066C000026E6E0E036E010E046E0FC013F010C04A
:1066D00014F011C015F012C016F0020ED890133647
:1066E000143615361636E82E6EEF33F0040ED890B9
:1066F0001336143615361636E82E77EF33F013C0FE
:1067000005F014C006F015C007F016C008F046ECFE
:1067100035F00104CB6E0FC082F010C083F011C0C1
:1067200084F012C085F01200000E016E360E026E6B
:106730006E0E036E010E046E0FC013F010C014F045
:1067400011C015F012C016F0020ED8901336143690
:1067500015361636E82EA5EF33F0040ED890133612
:10676000143615361636E82EAEEF33F013C005F0AA
:1067700014C006F015C007F016C008F046EC35F05E
:106780000104CB6E0FC082F010C083F011C084F002
:1067900012C085F01200000E056E000E046E01504E
:1067A000045C0550800A036E0250800A0358D8A08A
:1067B000DCEF33F0DEEF33F0E2EF33F01EEF34F0D6
:1067C0001EEF34F0000E076E000E066E07BEF2EFED
:1067D00033F0900E065C010E0758D8A0F2EF33F0AC
:1067E000F4EF33F0F8EF33F00BEF34F00BEF34F05D
:1067F00000F0064A072A07BE07EF34F0900E065C49
:10680000010E0758D8A007EF34F009EF34F0F8EF85
:1068100033F00BEF34F0044A052A0150045C0550B4
:10682000800A036E0250800A0358D8A01AEF34F091
:106830001CEF34F0E2EF33F01EEF34F01200056E7F
:1068400094EF34F0030EC26E26EF34F0C2B22BEF99
:1068500034F02DEF34F026EF34F02FEF34F0C45045
:10686000046E036AC3500324016E000E0420026EFE
:10687000B1EF34F0B1EF34F0B1EF34F0070EC26E87
:1068800042EF34F0C2B247EF34F049EF34F042EF58
:1068900034F04BEF34F0C450046E036AC350032449
:1068A000016E000E0420026EB1EF34F0B1EF34F04F
:1068B000B1EF34F00B0EC26E5EEF34F0C2B263EF94
:1068C00034F065EF34F05EEF34F067EF34F0C4502D
:1068D000046E036AC3500324016E000E0420026E8E
:1068E000B1EF34F0B1EF34F0B1EF34F00F0EC26E0F
:1068F0007AEF34F0C2B27FEF34F081EF34F07AEF08
:1069000034F083EF34F0C450046E036AC3500324A0
:10691000016E000E0420026EB1EF34F0B1EF34F0DE
:10692000B1EF34F0B1EF34F00550036E046A045057
:10693000000AD8B49EEF34F0B1EF34F00350000AEF
:10694000D8B422EF34F0010AD8B43EEF34F0030A91
:10695000D8B45AEF34F0010AD8B476EF34F0B1EF7E
:1069600034F012000FC005F010C006F011C007F09F
:1069700012C008F0000E016E360E026E6E0E036E2F
:10698000010E046E46EC35F001C013F002C014F0A5
:1069900003C015F004C016F013C001F014C002F0DB
:1069A00015C003F016C004F0100E056E000E066E42
:1069B000000E076E000E086E46EC35F0FF0E012447
:1069C000176EFF0E0220186EFF0E0320196EFF0EC9
:1069D00004201A6E1A50191008E11804D8A0F3EF19
:1069E00034F0F5EF34F030EF35F00FC005F010C0A3
:1069F00006F011C007F012C008F0000E016E360E4E
:106A0000026E6E0E036E010E046E46EC35F001C090
:106A100013F002C014F003C015F004C016F013C048
:106A200001F014C002F015C003F016C004F0100EFF
:106A3000056E000E066E000E076E000E086E46EC28
:106A400035F0FF0E0124176EFF0E0220186EFF0EA8
:106A50000320196EFF0E04201A6EAC8430EF35F05F
:106A60001A50191006E11804D8B039EF35F03BEF91
:106A700035F045EF35F017C0AFFFAC98AB8E948C76
:106A8000948EAB88AC8A45EF35F01200000E0A6E8A
:106A900008BE4FEF35F04DEF35F05BEF35F0081ED7
:106AA000071E061E056C000E062207220822010E94
:106AB0000A6E5BEF35F004BE62EF35F060EF35F043
:106AC0006EEF35F0041E031E021E016C000E022242
:106AD00003220422010E0A1A6EEF35F0000E0B6E2F
:106AE000000E0C6E000E0D6E000E0E6E05500610A0
:106AF00007100810D8B47FEF35F081EF35F0C3EF01
:106B000035F0010E096E8DEF35F0D890053606365A
:106B100007360836092A8DEF35F008AE92EF35F0CA
:106B200094EF35F085EF35F098EF35F098EF35F0CC
:106B3000D8900B360C360D360E360550015C0650DB
:106B400002580750035808500458D8A0AAEF35F04F
:106B5000ACEF35F0B7EF35F00550015E0650025A44
:106B60000750035A0850045A0B80B7EF35F0D890FD
:106B70000832073206320532092E98EF35F0C3EF9E
:106B800035F0C3EF35F00A50D8B4C9EF35F0CBEF8C
:106B900035F0D5EF35F00E1E0D1E0C1E0B6C000EE1
:106BA0000C220D220E22D5EF35F00BC001F00CC0E7
:106BB00002F00DC003F00EC004F0DFEF35F012005C
:106BC00047EC32F00009D8B4E8EF35F0EAEF35F0E1
:106BD00079EF36F0000E00017D6F000E7C6FFFEF45
:106BE00035F0640E7C25D96E000E7D21DA6E58ECEE
:106BF00032F0DF6E00017C4B7D2BFFEF35F08751CB
:106C0000796F7A6B79517C5D7D51800A7B6F7A5107
:106C1000800A7B59D8A00FEF36F011EF36F0F1EF74
:106C200035F065C06DF064C06EF06EC067F0686BE3
:106C30006751686F676B6D516727000E682367C0E7
:106C400074F068C075F0040E1BEC38F0000E1FECF9
:106C500034F001C06BF002C06CF06BC001F06CC08E
:106C600002F0010E046E000E036E10EC33F0000112
:106C7000706F6BC001F06CC002F0010E046E000E6C
:106C8000036EF5EC32F000016F6F70C069F06FC0F9
:106C90006AF0000E7F6F000E7E6F5DEF36F0690EBA
:106CA0007E25D96E000E7F21DA6EDF5067EC32F060
:106CB00000017E4B7F2B5DEF36F08751796F7A6B49
:106CC00079517E5D7F51800A7B6F7A51800A7B59B2
:106CD000D8A06DEF36F06FEF36F04FEF36F071EF72
:106CE00036F0000E026E640E016ECBEC33F083EFD3
:106CF00036F0000E0001756F000E746F040E1BEC71
:106D000038F083EF36F01200573458345E6E5E5020
:106D1000D8A48DEF36F08FEF36F09BEF36F0000EF3
:106D2000556E000E566E000E576E000E586E2CEF0C
:106D300037F02CEF37F055C059F056C05AF057C015
:106D40005BF058C05CF0200EABEF36F0D8905C32B0
:106D50005B325A325932E82EA6EF36F059505D6E4A
:106D6000578EFF0E5516FF0E5616FF0E5716000EC5
:106D70005816960E5E5E5EBEC2EF36F0C0EF36F07D
:106D8000E6EF36F05E50800A970FD8B0CAEF36F0C3
:106D9000CCEF36F0DAEF36F0000E556E000E566E80
:106DA000000E576E000E586E2CEF37F02CEF37F0B8
:106DB000DAEF36F0D89058325732563255325E3EBE
:106DC000DAEF36F010EF37F010EF37F01F0E5E6499
:106DD000ECEF36F0EEEF36F004EF37F0000E556EC4
:106DE000000E566E000E576E000E586E2CEF37F0E8
:106DF0002CEF37F004EF37F0D8905536563657362B
:106E000058365E0604EF37F05E50D8A40AEF37F02C
:106E10000CEF37F0FCEF36F010EF37F010EF37F0F3
:106E20005D50D8B416EF37F018EF37F022EF37F097
:106E3000581E571E561E556C000E562257225822B9
:106E400022EF37F055C055F056C056F057C057F0F6
:106E500058C058F02CEF37F012001D6E1D50D8B4FA
:106E600034EF37F036EF37F058EF37F018BE3DEF1C
:106E700037F03BEF37F058EF37F015C019F016C078
:106E80001AF017C01BF018C01CF0191E1A1E1B1E8A
:106E90001C1E192A000E1A221B221C2219C01FF0C8
:106EA0001AC020F01BC021F01CC022F062EF37F0A6
:106EB00015C01FF016C020F017C021F018C022F036
:106EC00062EF37F01550161017101810D8A46BEF9A
:106ED00037F06DEF37F079EF37F0000E156E000EDA
:106EE000166E000E176E000E186E1AEF38F01AEFBD
:106EF00038F0960E1E6E85EF37F01E2AD89022329B
:106F0000213220321F3285EF37F0000E1F14196E28
:106F1000000E20141A6E000E21141B6EFE0E221499
:106F20001C6E19501A101B101C10D8A49AEF37F0C1
:106F30009CEF37F07DEF37F0ACEF37F0ACEF37F088
:106F40001E2A010E1F26000E202221222222D89066
:106F50002232213220321F32000E1F14196E000E11
:106F600020141A6E000E21141B6EFF0E22141C6ECC
:106F700019501A101B101C10D8A4C1EF37F0C3EF22
:106F800037F0A0EF37F0CFEF37F0CFEF37F01E0636
:106F9000D8901F36203621362236CFEF37F021BE6B
:106FA000D4EF37F0D6EF37F0E0EF37F0020E1E6087
:106FB000DCEF37F0DEEF37F0C7EF37F0E0EF37F018
:106FC0001EB0E5EF37F0E7EF37F0EAEF37F0219E3C
:106FD000EAEF37F0D8901E321EC019F01A6A1B6A09
:106FE0001C6A19C01CF01B6A1A6A196A19501F1210
:106FF0001A5020121B5021121C5022121D50D8B4BE
:1070000004EF38F006EF38F010EF38F018BE0DEF4F
:1070100038F00BEF38F010EF38F0228E10EF38F028
:107020001FC015F020C016F021C017F022C018F0C4
:107030001AEF38F012000001786F12EF39F0040EE9
:107040000001755DD8B027EF38F029EF38F028EF50
:1070500039F033EC33F00FC015F010C016F0000E0D
:1070600016BEFF0E176E186E010E2DEC37F015C010
:1070700040F016C041F017C042F018C043F0000EB7
:10708000276EC00E286E7F0E296E440E2A6E74C0C5
:1070900015F075C016F0176A186A000E2DEC37F05F
:1070A00015C023F016C024F017C025F018C026F034
:1070B00039EC3AF023C03CF024C03DF025C03EF04E
:1070C00026C03FF049EC3CF03CC055F03DC056F0C6
:1070D0003EC057F03FC058F084EC36F055C074F015
:1070E00056C075F074C076F0020E00017617763B3C
:1070F0007647BD507619DF0B7619BD6E74C076F0F9
:10710000010E7617763BBD507619EF0B7619BD6EE2
:1071100074C076F075C077F0D89077337633D89016
:10712000773376337651BE6E28EF39F028EF39F099
:10713000040E755DD8B09FEF38F0A1EF38F028EF5E
:1071400039F033EC33F00FC015F010C016F0000E1C
:1071500016BEFF0E176E186E010E2DEC37F015C01F
:1071600040F016C041F017C042F018C043F0000EC6
:10717000276EC00E286E7F0E296E440E2A6E74C0D4
:1071800015F075C016F0176A186A000E2DEC37F06E
:1071900015C023F016C024F017C025F018C026F043
:1071A00039EC3AF023C03CF024C03DF025C03EF05D
:1071B00026C03FF049EC3CF03CC055F03DC056F0D5
:1071C0003EC057F03FC058F084EC36F055C074F024
:1071D00056C075F074C076F0020E00017617763B4B
:1071E0007647BA507619DF0B7619BA6E74C076F00E
:1071F000010E7617763BBA507619EF0B7619BA6EF8
:1072000074C076F075C077F0D89077337633D89025
:10721000773376337651BB6E28EF39F028EF39F0AB
:1072200028EF39F000017851766F776B7751000ABB
:10723000D8B41DEF39F028EF39F07651030AD8B4ED
:1072400098EF38F0070AD8B41FEF38F028EF39F07C
:107250001200046ECFEF39F001B002D0929801D045
:10726000928838EF3AF001B002D0929A01D0928A17
:1072700038EF3AF001B002D0949001D0948038EF0A
:107280003AF001B002D0949201D0948238EF3AF0F3
:1072900001B002D0949401D0948438EF3AF001B058
:1072A00002D0959001D0958038EF3AF001B002D02D
:1072B000959201D0958238EF3AF001B002D09594C2
:1072C00001D0958438EF3AF001B002D0959601D004
:1072D000958638EF3AF001B002D0949C01D0948C9E
:1072E00038EF3AF001B002D0949E01D0948E38EF7E
:1072F0003AF001B002D0959801D0958838EF3AF075
:1073000001B002D0959A01D0958A38EF3AF001B0D9
:1073100002D0959C01D0958C38EF3AF001B002D0A4
:10732000959E01D0958E38EF3AF001B002D093903F
:1073300001D0938038EF3AF001B002D0939201D09F
:10734000938238EF3AF001B002D0939401D0938445
:1073500038EF3AF001B002D0939601D0938638EF1F
:107360003AF001B002D0939801D0938838EF3AF008
:1073700001B002D0939A01D0938A38EF3AF001B06D
:1073800002D0939C01D0938C38EF3AF001B002D038
:10739000939E01D0938E38EF3AF038EF3AF00450D4
:1073A000026E036A0350000AD8B4D9EF39F038EFFF
:1073B0003AF00250000AD8B42CEF39F0010AD8B4E0
:1073C00033EF39F0030AD8B43AEF39F0010AD8B4F0
:1073D00041EF39F0070AD8B448EF39F0010AD8B4C0
:1073E0004FEF39F0030AD8B456EF39F0010AD8B498
:1073F0005DEF39F00F0AD8B464EF39F0010AD8B460
:107400006BEF39F0030AD8B472EF39F0010AD8B43F
:1074100079EF39F0070AD8B480EF39F0010AD8B40F
:1074200087EF39F0030AD8B48EEF39F0010AD8B4E7
:1074300095EF39F01F0AD8B49CEF39F0010AD8B49F
:10744000A3EF39F0030AD8B4AAEF39F0010AD8B48F
:10745000B1EF39F0070AD8B4B8EF39F0010AD8B45F
:10746000BFEF39F0030AD8B4C6EF39F038EF3AF07D
:1074700012002650800B336E265026243A6E25AE1D
:1074800044EF3AF046EF3AF049EF3AF03A8049EFEC
:107490003AF03A50D8B44FEF3AF051EF3AF068EF83
:1074A0003AF03A28D8A457EF3AF059EF3AF063EFA0
:1074B0003AF0000E236E000E246E000E256E000EB4
:1074C000266E63EF3AF0258E000E266E72EF3AF0CC
:1074D000000E236E000E246E000E256E000E266E2A
:1074E00072EF3AF02A50800B331A2A502A243B6E4E
:1074F00029AE7DEF3AF07FEF3AF082EF3AF03B8031
:1075000082EF3AF03B50D8B488EF3AF08AEF3AF085
:10751000A1EF3AF03B28D8A490EF3AF092EF3AF07E
:107520009CEF3AF0000E276E000E286E000E296EBA
:10753000000E2A6E9CEF3AF0298E000E2A6EABEFF9
:107540003AF0000E276E000E286E000E296E000E17
:107550002A6EABEF3AF02750281029102A10D8A431
:10756000B4EF3AF0B6EF3AF0D0EF3AF0000E236EF7
:10757000000E246E000E256E000E266E800E251263
:107580007F0E26123350261223C023F024C024F08D
:1075900025C025F026C026F048EF3CF048EF3CF02F
:1075A0003A50D8A4D6EF3AF0D8EF3AF0ECEF3AF0F0
:1075B000000E236E000E246E000E256E000E266E49
:1075C00023C023F024C024F025C025F026C026F0D7
:1075D00048EF3CF048EF3CF03B502B6E2C6A2B1EE2
:1075E0002C1E2B4A2C2A3A502D6E2E6A2B502D26FB
:1075F0002C502E227F0E2D24346E000E2E20356E40
:1076000023C02FF024C030F025C031F026C032F066
:10761000000E236E000E246E000E256E000E266EE8
:10762000000E366E000E376E000E386E000E396E8C
:10763000000E3B6E58EF3BF03B50D8B422EF3BF0CE
:1076400024EF3BF03DEF3BF0D8902F36303631360B
:107650003236D890233624362536263639AE33EFE7
:107660003BF035EF3BF036EF3BF02380D8903636D9
:107670003736383639363DEF3BF027502F5C2850EF
:107680003058295031582A503258D8A04AEF3BF090
:107690004CEF3BF057EF3BF0398C27502F5E2850D2
:1076A000305A2950315A2A50325A57EF3BF03B2A70
:1076B000190E3B645EEF3BF060EF3BF01CEF3BF0DC
:1076C00062EF3BF02F50301031103210D8B46BEF16
:1076D0003BF06DEF3BF089EF3BF0368089EF3BF0FC
:1076E00089EF3BF0D890233624362536263639AE3E
:1076F0007CEF3BF07EEF3BF07FEF3BF02380D890B8
:1077000036363736383639363406D8A0350689EF5E
:107710003BF025AE8EEF3BF090EF3BF072EF3BF08D
:1077200092EF3BF0000E3B6E39AE99EF3BF09BEFD2
:107730003BF0C3EF3BF0FF0E36142B6EFF0E3714F9
:107740002C6EFF0E38142D6E7F0E39142E6E2B50BA
:107750002C102D102E10D8B4B0EF3BF0B2EF3BF050
:10776000B6EF3BF0010E3B6EC3EF3BF023A0BBEF47
:107770003BF0BDEF3BF0C3EF3BF0010E3B6EC3EFC0
:107780003BF0C3EF3BF03B50D8B4C9EF3BF0CBEF3D
:107790003BF0F3EF3BF0010E2326000E24222522BE
:1077A000262226A0D6EF3BF0D8EF3BF0F3EF3BF0DC
:1077B00023C02BF024C02CF025C02DF026C02EF0C5
:1077C0002E342E322D322C322B322BC023F02CC0F3
:1077D00024F02DC025F02EC026F0344A352AF3EFD0
:1077E0003BF0F3EF3BF035BEFEEF3BF0355008E1E8
:1077F0003428D8A0FEEF3BF000EF3CF00DEF3CF05A
:10780000000E356E3468000E236E000E246E000EDE
:10781000256E000E266E0DEF3CF035BE1AEF3CF0E3
:10782000355006E13404D8B018EF3CF01AEF3CF0C4
:107830002AEF3CF0000E356E000E346E000E236E03
:10784000000E246E000E256E000E266E000E336EA6
:107850002AEF3CF034C03AF03AA031EF3CF033EF7D
:107860003CF036EF3CF0258E39EF3CF0259E39EFA9
:107870003CF0D8903A30266E3350261223C023F0C5
:1078800024C024F025C025F026C026F048EF3CF0A7
:1078900012003F50800B486E3F503F244E6E3EAE6C
:1078A00054EF3CF056EF3CF059EF3CF04E8059EF6E
:1078B0003CF04E50D8B45FEF3CF061EF3CF076EF17
:1078C0003CF04E28D8A467EF3CF069EF3CF073EF32
:1078D0003CF0000E3C6E000E3D6E000E3E6E000E43
:1078E0003F6E73EF3CF03E8E80EF3CF0000E3C6E3E
:1078F000000E3D6E000E3E6E000E3F6E80EF3CF0BF
:107900004350800B481A435043244D6E42AE8BEFD8
:107910003CF08DEF3CF090EF3CF04D8090EF3CF070
:107920004D50D8B496EF3CF098EF3CF0ADEF3CF002
:107930004D28D8A49EEF3CF0A0EF3CF0AAEF3CF01D
:10794000000E406E000E416E000E426E000E436E41
:10795000AAEF3CF0428EB5EF3CF0000E406E000EF8
:10796000416E000E426E000E436E4D50D8B4BBEF18
:107970003CF0BDEF3CF0C7EF3CF04E50D8A4C3EF55
:107980003CF0C5EF3CF0D3EF3CF0C7EF3CF0000E0D
:107990003C6E000E3D6E000E3E6E000E3F6E7FEFA1
:1079A0003EF07FEF3EF042503C02F3CF53F0F4CF75
:1079B00054F05350496E4A6A4B6A4C6A54504F6EA9
:1079C000506A516A526A41503D02F3CF53F0F4CFEE
:1079D00054F053504926000E4A224B224C22545058
:1079E0004F26000E50225122522240503E02F3CF29
:1079F00053F0F4CF54F053504926000E4A224B2244
:107A00004C2254504F26000E5022512252224BC07D
:107A10004CF04AC04BF049C04AF0496A40503D0220
:107A2000F3CF53F0F4CF54F05350492654504A2228
:107A3000000E4B22000E4C2241503C02F3CF53F07B
:107A4000F4CF54F05350492654504A22000E4B2292
:107A5000000E4C224BC04CF04AC04BF049C04AF0DB
:107A6000496A40503C02F3CF53F0F4CF54F05350E6
:107A7000492654504A22000E4B22000E4C224250FE
:107A80003D02F3CF53F0F4CF54F053504F265450EF
:107A90005022000E5122000E522241503E02F3CFDE
:107AA00053F0F4CF54F053504F2654505022000E50
:107AB0005122000E522242503E02F3CF53F0F4CF37
:107AC00054F05350446E5450456E466A476A46C05F
:107AD00047F045C046F044C045F0446A44504F2644
:107AE00045505022465051224750522249C044F03E
:107AF0004AC045F04BC046F04CC047F0190E86EF27
:107B00003DF0D8904732463245324432E82E81EF7C
:107B10003DF044504F264550502246505122475088
:107B200052224BC04CF04AC04BF049C04AF0496A5F
:107B30004D504EC044F0456A4426000E4522820E48
:107B40004424536EFF0E4520546EBEEF3DF0D89096
:107B50004F365036513652364CAEB1EF3DF0B3EFA2
:107B60003DF0B4EF3DF04F80D89049364A364B3661
:107B70004C365306D8A05406BEEF3DF051AEC3EFCD
:107B80003DF0C5EF3DF0A7EF3DF0C7EF3DF0000E33
:107B90004D6E4CAECEEF3DF0D0EF3DF0F8EF3DF046
:107BA000FF0E4914446EFF0E4A14456EFF0E4B142F
:107BB000466E7F0E4C14476E4450451046104710D9
:107BC000D8B4E5EF3DF0E7EF3DF0EBEF3DF0010E0F
:107BD0004D6EF8EF3DF04FA0F0EF3DF0F2EF3DF0CD
:107BE000F8EF3DF0010E4D6EF8EF3DF0F8EF3DF08F
:107BF0004D50D8B4FEEF3DF000EF3EF028EF3EF0E0
:107C0000010E4F26000E50225122522252A00BEF9D
:107C10003EF00DEF3EF028EF3EF04FC044F050C074
:107C200045F051C046F052C047F047344732463223
:107C30004532443244C04FF045C050F046C051F088
:107C400047C052F0534A542A28EF3EF028EF3EF046
:107C500054BE33EF3EF0545008E15328D8A033EF20
:107C60003EF035EF3EF03FEF3EF0000E4F6E000E5F
:107C7000506E800E516E7F0E526E73EF3EF054BE0A
:107C80004CEF3EF0545006E15304D8B04AEF3EF0BA
:107C90004CEF3EF058EF3EF0000E4F6E000E506E6F
:107CA000000E516E000E526E000E486E73EF3EF0E5
:107CB00053C04EF0FF0E4F16FF0E50167F0E51169A
:107CC000000E52164EA067EF3EF069EF3EF06CEFEB
:107CD0003EF0518E6CEF3EF0D8904E30526E73EF06
:107CE0003EF073EF3EF0485052124FC03CF050C08F
:107CF0003DF051C03EF052C03FF07FEF3EF0120029
:020000040020DA
:08000000FFFFFFFFFFFFFFFF00
:020000040030CA
:0E000000140E191EFF8181FF0FC00FE00F408C
:00000001FF
