:020000040000FA
:0400000007EF00F016
:0A0008002F825FED37F08FEF37F025
:106E1C00120093681200956812003F0E926E1200D9
:106E2C00CF0E946E1200B60ECD6E12009680968226
:106E3C0096841200BD86BD84CA80CA82CA841200A0
:106E4C00BA86BA84CA80CA82CA841200140013009B
:106E5C001200110010000F00928092829284928690
:106E6C00010EC26E0B0EC16EAB0EC06E1200AFCF18
:106E7C0023F0246A4CEC37F0ACEC37F0E5EC3CF04A
:106E8C0044EF37F044EF37F007EF00F032EC37F017
:106E9C0076EC37F013EC37F00FEC37F016EC37F0EC
:106EAC0011EC37F01CEC37F00EEC37F019EC37F036
:106EBC0012000600F2A465EF37F067EF37F074EFBD
:106ECC0037F0010E2926000E2A222B222C22F294B6
:106EDC00000ED66E000ED76E74EF37F02F921100A5
:106EEC00DC0E0F6E050E106E000E116E000E126E83
:106EFC00CFEC37F0DC0E0F6E050E106E000E116E1F
:106F0C00000E126E06EC38F020EC37F026EC37F061
:106F1C001200580EF66E6E0EF76E000EF86E00EE46
:106F2C0017F010EE0CF00900F5CFEEFFE550E15034
:106F3C00FAE12E6A2D6A2C6A2B6A2A6A296A2F902A
:106F4C002F92000EF86E00013DEF37F0000E016E2F
:106F5C0021503BEC3AF0000E016E1F503BEC3AF026
:106F6C00000E016E1D503BEC3AF0000E016E1B50F2
:106F7C003BEC3AF0010E016E17503BEC3AF0010E6F
:106F8C00016E19503BEC3AF0000E2E6E000E2D6E79
:106F9C001200000E016E360E026E6E0E036E010EA6
:106FAC00046E0FC013F010C014F011C015F012C015
:106FBC0016F0020ED8901336143615361636E82E07
:106FCC00E0EF37F0040ED89013361436153616361B
:106FDC00E82EE9EF37F013C005F014C006F015C029
:106FEC0007F016C008F091EC38F00104CB6E0FC01E
:106FFC0025F010C026F011C027F012C028F01200A6
:10700C00000E016E360E026E6E0E036E010E046ED5
:10701C000FC013F010C014F011C015F012C016F010
:10702C00020ED8901336143615361636E82E17EF96
:10703C0038F0040ED8901336143615361636E82E62
:10704C0020EF38F013C005F014C006F015C007F09F
:10705C0016C008F091EC38F00104CB6E0FC025F08F
:10706C0010C026F011C027F012C028F01200000E3C
:10707C00056E000E046E0150045C0550800A036E10
:10708C000250800A0358D8A04EEF38F050EF38F079
:10709C0054EF38F090EF38F090EF38F0000E076EA8
:1070AC00000E066E07BE64EF38F0900E065C010E03
:1070BC000758D8A064EF38F066EF38F06AEF38F074
:1070CC007DEF38F07DEF38F000F0064A072A07BE56
:1070DC0079EF38F0900E065C010E0758D8A079EFC6
:1070EC0038F07BEF38F06AEF38F07DEF38F0044A77
:1070FC00052A0150045C0550800A036E0250800A78
:10710C000358D8A08CEF38F08EEF38F054EF38F0ED
:10711C0090EF38F01200000E0A6E08BE9AEF38F0AD
:10712C0098EF38F0A6EF38F0081E071E061E056C07
:10713C00000E062207220822010E0A6EA6EF38F076
:10714C0004BEADEF38F0ABEF38F0B9EF38F0041EF9
:10715C00031E021E016C000E022203220422010EE9
:10716C000A1AB9EF38F0000E0B6E000E0C6E000E02
:10717C000D6E000E0E6E0550061007100810D8B4D8
:10718C00CAEF38F0CCEF38F00EEF39F0010E096E83
:10719C00D8EF38F0D8900536063607360836092A67
:1071AC00D8EF38F008AEDDEF38F0DFEF38F0D0EF85
:1071BC0038F0E3EF38F0E3EF38F0D8900B360C36BC
:1071CC000D360E360550015C065002580750035818
:1071DC0008500458D8A0F5EF38F0F7EF38F002EF6C
:1071EC0039F00550015E0650025A0750035A0850F8
:1071FC00045A0B8002EF39F0D8900832073206326D
:10720C000532092EE3EF38F00EEF39F00EEF39F0BE
:10721C000A50D8B414EF39F016EF39F020EF39F0EA
:10722C000E1E0D1E0C1E0B6C000E0C220D220E22BF
:10723C0020EF39F00BC001F00CC002F00DC003F0D0
:10724C000EC004F02AEF39F01200046ED1EF39F0C1
:10725C0001B002D0899801D089883AEF3AF001B098
:10726C0002D0899A01D0898A3AEF3AF001B002D063
:10727C008B9001D08B803AEF3AF001B002D08B9218
:10728C0001D08B823AEF3AF001B002D08B9401D04E
:10729C008B843AEF3AF001B002D08C9001D08C8004
:1072AC003AEF3AF001B002D08C9201D08C823AEFD6
:1072BC003AF001B002D08C9401D08C843AEF3AF0C1
:1072CC0001B002D08C9601D08C863AEF3AF001B026
:1072DC0002D08B9C01D08B8C3AEF3AF001B002D0EB
:1072EC008B9E01D08B8E3AEF3AF001B002D08C9885
:1072FC0001D08C883AEF3AF001B002D08C9A01D0D0
:10730C008C8A3AEF3AF001B002D08C9C01D08C8C74
:10731C003AEF3AF001B002D08C9E01D08C8E3AEF4D
:10732C003AF001B002D08A9001D08A803AEF3AF05C
:10733C0001B002D08A9201D08A823AEF3AF001B0C1
:10734C0002D08A9401D08A843AEF3AF001B002D08C
:10735C008A9601D08A863AEF3AF001B002D08A9828
:10736C0001D08A883AEF3AF001B002D08A9A01D063
:10737C008A8A3AEF3AF001B002D08A9C01D08A8C0A
:10738C003AEF3AF001B002D08A9E01D08A8E3AEFE1
:10739C003AF03AEF3AF00450026E036A0350000AD6
:1073AC00D8B4DBEF39F03AEF3AF00250000AD8B417
:1073BC002EEF39F0010AD8B435EF39F0030AD8B4FE
:1073CC003CEF39F0010AD8B443EF39F0070AD8B4CE
:1073DC004AEF39F0010AD8B451EF39F0030AD8B4A6
:1073EC0058EF39F0010AD8B45FEF39F00F0AD8B46E
:1073FC0066EF39F0010AD8B46DEF39F0030AD8B44E
:10740C0074EF39F0010AD8B47BEF39F0070AD8B41D
:10741C0082EF39F0010AD8B489EF39F0030AD8B4F5
:10742C0090EF39F0010AD8B497EF39F01F0AD8B4AD
:10743C009EEF39F0010AD8B4A5EF39F0030AD8B49D
:10744C00ACEF39F0010AD8B4B3EF39F0070AD8B46D
:10745C00BAEF39F0010AD8B4C1EF39F0030AD8B445
:10746C00C8EF39F03AEF3AF01200046EE1EF3AF05F
:10747C0001B002D0929801D092884AEF3BF001B053
:10748C0002D0929A01D0928A4AEF3BF001B002D01E
:10749C00949001D094804AEF3BF001B002D09492CA
:1074AC0001D094824AEF3BF001B002D0949401D009
:1074BC0094844AEF3BF001B002D0959001D09580B6
:1074CC004AEF3BF001B002D0959201D095824AEF81
:1074DC003BF001B002D0959401D095844AEF3BF07B
:1074EC0001B002D0959601D095864AEF3BF001B0E1
:1074FC0002D0949C01D0948C4AEF3BF001B002D0A6
:10750C00949E01D0948E4AEF3BF001B002D0959836
:10751C0001D095884AEF3BF001B002D0959A01D08A
:10752C00958A4AEF3BF001B002D0959C01D0958C26
:10753C004AEF3BF001B002D0959E01D0958E4AEFF8
:10754C003BF001B002D0939001D093804AEF3BF016
:10755C0001B002D0939201D093824AEF3BF001B07C
:10756C0002D0939401D093844AEF3BF001B002D047
:10757C00939601D093864AEF3BF001B002D09398DA
:10758C0001D093884AEF3BF001B002D0939A01D01E
:10759C00938A4AEF3BF001B002D0939C01D0938CBC
:1075AC004AEF3BF001B002D0939E01D0938E4AEF8C
:1075BC003BF04AEF3BF00450026E036A0350000AA2
:1075CC00D8B4EBEF3AF04AEF3BF00250000AD8B4D3
:1075DC003EEF3AF0010AD8B445EF3AF0030AD8B4BA
:1075EC004CEF3AF0010AD8B453EF3AF0070AD8B48A
:1075FC005AEF3AF0010AD8B461EF3AF0030AD8B462
:10760C0068EF3AF0010AD8B46FEF3AF00F0AD8B429
:10761C0076EF3AF0010AD8B47DEF3AF0030AD8B409
:10762C0084EF3AF0010AD8B48BEF3AF0070AD8B4D9
:10763C0092EF3AF0010AD8B499EF3AF0030AD8B4B1
:10764C00A0EF3AF0010AD8B4A7EF3AF01F0AD8B469
:10765C00AEEF3AF0010AD8B4B5EF3AF0030AD8B459
:10766C00BCEF3AF0010AD8B4C3EF3AF0070AD8B429
:10767C00CAEF3AF0010AD8B4D1EF3AF0030AD8B401
:10768C00D8EF3AF04AEF3BF01200036E7BEF3CF080
:10769C0080B853EF3BF056EF3BF0010E57EF3BF049
:1076AC00000EE4EF3CF0E4EF3CF080BA60EF3BF00E
:1076BC0063EF3BF0010E64EF3BF0000EE4EF3CF0A7
:1076CC00E4EF3CF082B06DEF3BF070EF3BF0010E5D
:1076DC0071EF3BF0000EE4EF3CF0E4EF3CF082B2D3
:1076EC007AEF3BF07DEF3BF0010E7EEF3BF0000EAE
:1076FC00E4EF3CF0E4EF3CF082B487EF3BF08AEF30
:10770C003BF0010E8BEF3BF0000EE4EF3CF0E4EFAE
:10771C003CF083B094EF3BF097EF3BF0010E98EF09
:10772C003BF0000EE4EF3CF0E4EF3CF083B2A1EF51
:10773C003BF0A4EF3BF0010EA5EF3BF0000EE4EFA5
:10774C003CF0E4EF3CF083B4AEEF3BF0B1EF3BF038
:10775C00010EB2EF3BF0000EE4EF3CF0E4EF3CF036
:10776C0083B6BBEF3BF0BEEF3BF0010EBFEF3BF03F
:10777C00000EE4EF3CF0E4EF3CF082BCC8EF3BF0D1
:10778C00CBEF3BF0010ECCEF3BF0000EE4EF3CF006
:10779C00E4EF3CF082BED5EF3BF0D8EF3BF0010EAE
:1077AC00D9EF3BF0000EE4EF3CF0E4EF3CF083B893
:1077BC00E2EF3BF0E5EF3BF0010EE6EF3BF0000EA5
:1077CC00E4EF3CF0E4EF3CF083BAEFEF3BF0F2EF88
:1077DC003BF0010EF3EF3BF0000EE4EF3CF0E4EF76
:1077EC003CF083BCFCEF3BF0FFEF3BF0010E00EFF5
:1077FC003CF0000EE4EF3CF0E4EF3CF083BE09EF0C
:10780C003CF00CEF3CF0010E0DEF3CF0000EE4EF01
:10781C003CF0E4EF3CF081B016EF3CF019EF3CF09B
:10782C00010E1AEF3CF0000EE4EF3CF0E4EF3CF0FC
:10783C0081B223EF3CF026EF3CF0010E27EF3CF039
:10784C00000EE4EF3CF0E4EF3CF081B430EF3CF0A0
:10785C0033EF3CF0010E34EF3CF0000EE4EF3CF063
:10786C00E4EF3CF081B63DEF3CF040EF3CF0010E14
:10787C0041EF3CF0000EE4EF3CF0E4EF3CF081B85B
:10788C004AEF3CF04DEF3CF0010E4EEF3CF0000E99
:10789C00E4EF3CF0E4EF3CF081BA57EF3CF05AEFE8
:1078AC003CF0010E5BEF3CF0000EE4EF3CF0E4EF3B
:1078BC003CF081BC64EF3CF067EF3CF0010E68EFEC
:1078CC003CF0000EE4EF3CF0E4EF3CF081BE71EFD5
:1078DC003CF074EF3CF0010E75EF3CF0000EE4EF61
:1078EC003CF0E4EF3CF0E4EF3CF00350016E026A34
:1078FC000250000AD8B485EF3CF0E4EF3CF00150A4
:10790C00000AD8B44EEF3BF0010AD8B45BEF3BF061
:10791C00030AD8B468EF3BF0010AD8B475EF3BF01A
:10792C00070AD8B482EF3BF0010AD8B48FEF3BF0D2
:10793C00030AD8B49CEF3BF0010AD8B4A9EF3BF092
:10794C000F0AD8B4B6EF3BF0010AD8B4C3EF3BF042
:10795C00030AD8B4D0EF3BF0010AD8B4DDEF3BF00A
:10796C00070AD8B4EAEF3BF0010AD8B4F7EF3BF0C2
:10797C00030AD8B404EF3CF0010AD8B411EF3CF080
:10798C001F0AD8B41EEF3CF0010AD8B42BEF3CF020
:10799C00030AD8B438EF3CF0010AD8B445EF3CF0F8
:1079AC00070AD8B452EF3CF0010AD8B45FEF3CF0B0
:1079BC00030AD8B46CEF3CF0E4EF3CF0120061EF3A
:1079CC003EF0010E016E21502BEC39F0000E016ED1
:1079DC001F502BEC39F0000E016E1D502BEC39F0C2
:1079EC00000E016E1B502BEC39F017504BEC3BF09A
:1079FC00E806D8A404EF3DF006EF3DF01FEF3DF094
:107A0C00000E026E640E016E3DEC38F017504BEC1C
:107A1C003BF0E806D8A415EF3DF017EF3DF01FEF53
:107A2C003DF0000E2E6E010E2D6E1FEF3DF01FEF80
:107A3C003DF019504BEC3BF0E806D8A428EF3DF094
:107A4C002AEF3DF07FEF3EF0000E026E640E016EE9
:107A5C003DEC38F019504BEC3BF0E806D8A439EF6C
:107A6C003DF03BEF3DF07FEF3EF0000E2E6E030E2F
:107A7C002D6E7FEF3EF07FEF3EF07FEF3EF0000E7D
:107A8C00016E21502BEC39F0010E016E1F502BECC6
:107A9C0039F0000E016E1D502BEC39F0000E016E0A
:107AAC001B502BEC39F017504BEC3BF0E806D8A4EC
:107ABC0062EF3DF064EF3DF07DEF3DF0000E026EA5
:107ACC00640E016E3DEC38F017504BEC3BF0E806C1
:107ADC00D8A473EF3DF075EF3DF07DEF3DF0000E57
:107AEC002E6E020E2D6E7DEF3DF07DEF3DF01950A8
:107AFC004BEC3BF0E806D8A486EF3DF088EF3DF068
:107B0C007FEF3EF0000E026E640E016E3DEC38F01D
:107B1C0019504BEC3BF0E806D8A497EF3DF099EFE9
:107B2C003DF07FEF3EF0000E2E6E000E2D6E7FEFBF
:107B3C003EF07FEF3EF07FEF3EF0000E016E2150E5
:107B4C002BEC39F0000E016E1F502BEC39F0010EAE
:107B5C00016E1D502BEC39F0000E016E1B502BECFE
:107B6C0039F017504BEC3BF0E806D8A4C0EF3DF0D1
:107B7C00C2EF3DF0DBEF3DF0000E026E640E016EC5
:107B8C003DEC38F017504BEC3BF0E806D8A4D1EFA5
:107B9C003DF0D3EF3DF0DBEF3DF0000E2E6E030E0B
:107BAC002D6EDBEF3DF0DBEF3DF019504BEC3BF075
:107BBC00E806D8A4E4EF3DF0E6EF3DF07FEF3EF0B1
:107BCC00000E026E640E016E3DEC38F019504BEC59
:107BDC003BF0E806D8A4F5EF3DF0F7EF3DF07FEF72
:107BEC003EF0000E2E6E010E2D6E7FEF3EF07FEFFD
:107BFC003EF07FEF3EF0000E016E21502BEC39F081
:107C0C00000E016E1F502BEC39F0000E016E1D5052
:107C1C002BEC39F0010E016E1B502BEC39F0175088
:107C2C004BEC3BF0E806D8A41EEF3EF020EF3EF004
:107C3C0039EF3EF0000E026E640E016E3DEC38F032
:107C4C0017504BEC3BF0E806D8A42FEF3EF031EF89
:107C5C003EF039EF3EF0000E2E6E000E2D6E39EF19
:107C6C003EF039EF3EF019504BEC3BF0E806D8A44F
:107C7C0042EF3EF044EF3EF07FEF3EF0000E026E1E
:107C8C00640E016E3DEC38F019504BEC3BF0E806FD
:107C9C00D8A453EF3EF055EF3EF07FEF3EF0000ED0
:107CAC002E6E020E2D6E7FEF3EF07FEF3EF07FEFDB
:107CBC003EF07FEF3EF02DC008F02EC009F00950C9
:107CCC00000AD8B46CEF3EF07FEF3EF00850000A8B
:107CDC00D8B4E7EF3CF0010AD8B445EF3DF0030A05
:107CEC00D8B4A3EF3DF0010AD8B401EF3EF07FEF1A
:047CFC003EF0120044
:020000040020DA
:08000000FFFFFFFFFFFFFFFF00
:020000040030CA
:0E000000140E191EFF8181FF0FC00FE00F408C
:00000001FF
