:020000040000FA
:0400000007EF00F016
:100008001F822AED01F062EF01F0000E0A6E08BEB1
:1000180012EF00F010EF00F01EEF00F0081E071EB0
:10002800061E056C000E062207220822010E0A6E23
:100038001EEF00F004BE25EF00F023EF00F031EFD3
:1000480000F0041E031E021E016C000E0222032291
:100058000422010E0A1A31EF00F0000E0B6E000E9A
:100068000C6E000E0D6E000E0E6E05500610071079
:100078000810D8B442EF00F044EF00F086EF00F02B
:10008800010E096E50EF00F0D89005360636073697
:100098000836092A50EF00F008AE55EF00F057EF88
:1000A80000F048EF00F05BEF00F05BEF00F0D89055
:1000B8000B360C360D360E360550015C06500258CC
:1000C8000750035808500458D8A06DEF00F06FEFA0
:1000D80000F07AEF00F00550015E0650025A075012
:1000E800035A0850045A0B807AEF00F0D89008326F
:1000F800073206320532092E5BEF00F086EF00F07A
:1001080086EF00F00A50D8B48CEF00F08EEF00F0C4
:1001180098EF00F00E1E0D1E0C1E0B6C000E0C222C
:100128000D220E2298EF00F00BC001F00CC002F077
:100138000DC003F00EC004F0A2EF00F01200000E94
:10014800016E360E026E6E0E036E010E046E0FC047
:1001580013F010C014F011C015F012C016F0020E02
:10016800D8901336143615361636E82EB4EF00F04C
:10017800040ED8901336143615361636E82EBDEF11
:1001880000F013C005F014C006F015C007F016C043
:1001980008F009EC00F00104CB6E0FC017F010C096
:1001A80018F011C019F012C01AF01200000E016EFA
:1001B800360E026E6E0E036E010E046E0FC013F043
:1001C80010C014F011C015F012C016F0020ED8902D
:1001D8001336143615361636E82EEBEF00F0040EFB
:1001E800D8901336143615361636E82EF4EF00F08C
:1001F80013C005F014C006F015C007F016C008F0CB
:1002080009EC00F00104CB6E0FC017F010C018F015
:1002180011C019F012C01AF01200DC0E0F6E050E94
:10022800106E000E116E000E126EDAEC00F0DC0E8D
:100238000F6E050E106E000E116E000E126EA3ECFE
:1002480000F088EC01F082EC01F012000600F2A444
:1002580030EF01F032EF01F03FEF01F0010E1B2605
:10026800000E1C221D221E22F294000ED66E000ED5
:10027800D76E3FEF01F01F9211006DEC01F011EC09
:1002880001F098EC01F09DEC01F095EC01F09BEC8D
:1002980001F08EEC01F078EC01F092EC01F0120024
:1002A80041EC01F09FEC01F05AEF01F0A0EC01F0F5
:1002B8005AEF01F05AEF01F007EF00F01E6A1D6ACD
:1002C8001C6A1B6A1F901F92000EF86E000154EF03
:1002D80001F09280928292849286010EC26E0B0E79
:1002E800C16EAB0EC06E1200170ED56EF28A000EEC
:1002F800D66E000ED76EF294F28E1200BA86BA84C9
:10030800CA80CA82CA841200BD86BD84CA80CA82D5
:10031800CA8412009680968296841200B60ECD6E1C
:100328001200CF0E946E12003F0E926E1200956866
:0A0338001200936812001200120078
:020000040020DA
:08000000FFFFFFFFFFFFFFFF00
:020000040030CA
:0E000000140E191EFF8181FF0FC00FE00F408C
:00000001FF
